{
  "_format": "hh-sol-artifact-1",
  "contractName": "PriceConsumerV3",
  "sourceName": "contracts/chainlink/ethusd.sol",
  "abi": [
    {
      "inputs": [],
      "stateMutability": "nonpayable",
      "type": "constructor"
    },
    {
      "inputs": [],
      "name": "getLatestPrice",
      "outputs": [
        {
          "internalType": "int256",
          "name": "",
          "type": "int256"
        }
      ],
      "stateMutability": "view",
      "type": "function"
    },
    {
      "inputs": [],
      "name": "storeLatestPrice",
      "outputs": [],
      "stateMutability": "nonpayable",
      "type": "function"
    },
    {
      "inputs": [],
      "name": "storedPrice",
      "outputs": [
        {
          "internalType": "int256",
          "name": "",
          "type": "int256"
        }
      ],
      "stateMutability": "view",
      "type": "function"
    }
  ],
  "bytecode": "0x608060405234801561001057600080fd5b50738a753747a1fa494ec906ce90e9f37563a8af630e6000806101000a81548173ffffffffffffffffffffffffffffffffffffffff021916908373ffffffffffffffffffffffffffffffffffffffff1602179055506102cf806100746000396000f3fe608060405234801561001057600080fd5b50600436106100415760003560e01c806353d10acb146100465780638e15f473146100505780639ed301281461006e575b600080fd5b61004e61008c565b005b61005861009c565b604051610065919061015a565b60405180910390f35b61007661013b565b604051610083919061015a565b60405180910390f35b61009461009c565b600181905550565b60008060008054906101000a900473ffffffffffffffffffffffffffffffffffffffff1673ffffffffffffffffffffffffffffffffffffffff1663feaf968c6040518163ffffffff1660e01b815260040160a060405180830381865afa15801561010a573d6000803e3d6000fd5b505050506040513d601f19601f8201168201806040525081019061012e919061021e565b5050509150508091505090565b60015481565b6000819050919050565b61015481610141565b82525050565b600060208201905061016f600083018461014b565b92915050565b600080fd5b600069ffffffffffffffffffff82169050919050565b6101998161017a565b81146101a457600080fd5b50565b6000815190506101b681610190565b92915050565b6101c581610141565b81146101d057600080fd5b50565b6000815190506101e2816101bc565b92915050565b6000819050919050565b6101fb816101e8565b811461020657600080fd5b50565b600081519050610218816101f2565b92915050565b600080600080600060a0868803121561023a57610239610175565b5b6000610248888289016101a7565b9550506020610259888289016101d3565b945050604061026a88828901610209565b935050606061027b88828901610209565b925050608061028c888289016101a7565b915050929550929590935056fea2646970667358221220a52700250139f1d1944aff3facc2ee5c6160dacc269c50d1e887765ae4375d8664736f6c63430008130033",
  "linkReferences": {},
  "deployedLinkReferences": {}
}